{
  "_format": "hh-sol-artifact-1",
  "contractName": "InterchainSender",
  "sourceName": "solidity/precompiles/testutil/contracts/InterchainSender.sol",
  "abi": [
    {
      "inputs": [],
      "name": "counter",
      "outputs": [
        {
          "internalType": "int64",
          "name": "",
          "type": "int64"
        }
      ],
      "stateMutability": "view",
      "type": "function"
    },
    {
      "inputs": [
        {
          "internalType": "string",
          "name": "trace",
          "type": "string"
        }
      ],
      "name": "testDenomHash",
      "outputs": [
        {
          "internalType": "string",
          "name": "hash",
          "type": "string"
        }
      ],
      "stateMutability": "view",
      "type": "function"
    },
    {
      "inputs": [
        {
          "internalType": "string",
          "name": "hash",
          "type": "string"
        }
      ],
      "name": "testDenomTrace",
      "outputs": [
        {
          "components": [
            {
              "internalType": "string",
              "name": "path",
              "type": "string"
            },
            {
              "internalType": "string",
              "name": "baseDenom",
              "type": "string"
            }
          ],
          "internalType": "struct DenomTrace",
          "name": "denomTrace",
          "type": "tuple"
        }
      ],
      "stateMutability": "view",
      "type": "function"
    },
    {
      "inputs": [
        {
          "components": [
            {
              "internalType": "bytes",
              "name": "key",
              "type": "bytes"
            },
            {
              "internalType": "uint64",
              "name": "offset",
              "type": "uint64"
            },
            {
              "internalType": "uint64",
              "name": "limit",
              "type": "uint64"
            },
            {
              "internalType": "bool",
              "name": "countTotal",
              "type": "bool"
            },
            {
              "internalType": "bool",
              "name": "reverse",
              "type": "bool"
            }
          ],
          "internalType": "struct PageRequest",
          "name": "pageRequest",
          "type": "tuple"
        }
      ],
      "name": "testDenomTraces",
      "outputs": [
        {
          "components": [
            {
              "internalType": "string",
              "name": "path",
              "type": "string"
            },
            {
              "internalType": "string",
              "name": "baseDenom",
              "type": "string"
            }
          ],
          "internalType": "struct DenomTrace[]",
          "name": "denomTraces",
          "type": "tuple[]"
        },
        {
          "components": [
            {
              "internalType": "bytes",
              "name": "nextKey",
              "type": "bytes"
            },
            {
              "internalType": "uint64",
              "name": "total",
              "type": "uint64"
            }
          ],
          "internalType": "struct PageResponse",
          "name": "pageResponse",
          "type": "tuple"
        }
      ],
      "stateMutability": "view",
      "type": "function"
    },
    {
      "inputs": [
        {
          "internalType": "address payable",
          "name": "_source",
          "type": "address"
        },
        {
          "internalType": "string",
          "name": "sourcePort",
          "type": "string"
        },
        {
          "internalType": "string",
          "name": "sourceChannel",
          "type": "string"
        },
        {
          "internalType": "string",
          "name": "denom",
          "type": "string"
        },
        {
          "internalType": "uint256",
          "name": "amount",
          "type": "uint256"
        },
        {
          "internalType": "string",
          "name": "receiver",
          "type": "string"
        },
        {
          "internalType": "bool",
          "name": "_before",
          "type": "bool"
        },
        {
          "internalType": "bool",
          "name": "_between",
          "type": "bool"
        },
        {
          "internalType": "bool",
          "name": "_after",
          "type": "bool"
        }
      ],
      "name": "testMultiTransferWithInternalTransfer",
      "outputs": [],
      "stateMutability": "nonpayable",
      "type": "function"
    },
    {
      "inputs": [
        {
          "internalType": "string",
          "name": "sourcePort",
          "type": "string"
        },
        {
          "internalType": "string",
          "name": "sourceChannel",
          "type": "string"
        },
        {
          "internalType": "string",
          "name": "denom",
          "type": "string"
        },
        {
          "internalType": "uint256",
          "name": "amount",
          "type": "uint256"
        },
        {
          "internalType": "string",
          "name": "receiver",
          "type": "string"
        },
        {
          "components": [
            {
              "internalType": "uint64",
              "name": "revisionNumber",
              "type": "uint64"
            },
            {
              "internalType": "uint64",
              "name": "revisionHeight",
              "type": "uint64"
            }
          ],
          "internalType": "struct Height",
          "name": "timeoutHeight",
          "type": "tuple"
        },
        {
          "internalType": "uint64",
          "name": "timeoutTimestamp",
          "type": "uint64"
        },
        {
          "internalType": "string",
          "name": "memo",
          "type": "string"
        }
      ],
      "name": "testTransferContractFunds",
      "outputs": [
        {
          "internalType": "uint64",
          "name": "nextSequence",
          "type": "uint64"
        }
      ],
      "stateMutability": "nonpayable",
      "type": "function"
    },
    {
      "inputs": [
        {
          "internalType": "address payable",
          "name": "_otherAcc",
          "type": "address"
        },
        {
          "internalType": "address",
          "name": "_source",
          "type": "address"
        },
        {
          "internalType": "string",
          "name": "sourcePort",
          "type": "string"
        },
        {
          "internalType": "string",
          "name": "sourceChannel",
          "type": "string"
        },
        {
          "internalType": "string",
          "name": "denom",
          "type": "string"
        },
        {
          "internalType": "uint256",
          "name": "amount",
          "type": "uint256"
        },
        {
          "internalType": "string",
          "name": "receiver",
          "type": "string"
        },
        {
          "internalType": "bool",
          "name": "_before",
          "type": "bool"
        },
        {
          "internalType": "bool",
          "name": "_after",
          "type": "bool"
        }
      ],
      "name": "testTransferFundsWithTransferToOtherAcc",
      "outputs": [],
      "stateMutability": "nonpayable",
      "type": "function"
    },
    {
      "inputs": [
        {
          "internalType": "string",
          "name": "sourcePort",
          "type": "string"
        },
        {
          "internalType": "string",
          "name": "sourceChannel",
          "type": "string"
        },
        {
          "internalType": "string",
          "name": "denom",
          "type": "string"
        },
        {
          "internalType": "uint256",
          "name": "amount",
          "type": "uint256"
        },
        {
          "internalType": "string",
          "name": "receiver",
          "type": "string"
        },
        {
          "components": [
            {
              "internalType": "uint64",
              "name": "revisionNumber",
              "type": "uint64"
            },
            {
              "internalType": "uint64",
              "name": "revisionHeight",
              "type": "uint64"
            }
          ],
          "internalType": "struct Height",
          "name": "timeoutHeight",
          "type": "tuple"
        },
        {
          "internalType": "uint64",
          "name": "timeoutTimestamp",
          "type": "uint64"
        },
        {
          "internalType": "string",
          "name": "memo",
          "type": "string"
        }
      ],
      "name": "testTransferUserFunds",
      "outputs": [
        {
          "internalType": "uint64",
          "name": "nextSequence",
          "type": "uint64"
        }
      ],
      "stateMutability": "nonpayable",
      "type": "function"
    }
  ],
  "bytecode": "0x608060405234801561001057600080fd5b50612205806100206000396000f3fe608060405234801561001057600080fd5b50600436106100885760003560e01c8063b96728791161005b578063b967287914610127578063c595699a14610143578063dfa10f3914610173578063ee5766d9146101a457610088565b80631dba685b1461008d57806361bc221a146100a95780636fdf23cc146100c75780637492bdd8146100f7575b600080fd5b6100a760048036038101906100a29190610e75565b6101d4565b005b6100b1610649565b6040516100be9190610fcb565b60405180910390f35b6100e160048036038101906100dc9190611080565b61065a565b6040516100ee91906111d2565b60405180910390f35b610111600480360381019061010c9190611080565b6106f8565b60405161011e91906111d2565b60405180910390f35b610141600480360381019061013c919061122b565b610796565b005b61015d60048036038101906101589190611365565b610a63565b60405161016a919061142d565b60405180910390f35b61018d60048036038101906101889190611473565b610aed565b60405161019b9291906116ad565b60405180910390f35b6101be60048036038101906101b99190611365565b610b81565b6040516101cb9190611728565b60405180910390f35b82156102d65760008081819054906101000a900460070b809291906101f890611779565b91906101000a81548167ffffffffffffffff021916908360070b67ffffffffffffffff1602179055505060008973ffffffffffffffffffffffffffffffffffffffff16650da475abf00060405161024e906117da565b60006040518083038185875af1925050503d806000811461028b576040519150601f19603f3d011682016040523d82523d6000602084013e610290565b606091505b50509050806102d4576040517f08c379a00000000000000000000000000000000000000000000000000000000081526004016102cb90611861565b60405180910390fd5b505b60006040518060400160405280606467ffffffffffffffff168152602001606467ffffffffffffffff16815250905061080273ffffffffffffffffffffffffffffffffffffffff1663632535b98a8a8a60028b61033391906118b0565b8f8b8860006040518963ffffffff1660e01b815260040161035b9897969594939291906119dc565b6020604051808303816000875af115801561037a573d6000803e3d6000fd5b505050506040513d601f19601f8201168201806040525081019061039e9190611aa0565b5082156104a15760008081819054906101000a900460070b809291906103c390611779565b91906101000a81548167ffffffffffffffff021916908360070b67ffffffffffffffff1602179055505060008a73ffffffffffffffffffffffffffffffffffffffff16650da475abf000604051610419906117da565b60006040518083038185875af1925050503d8060008114610456576040519150601f19603f3d011682016040523d82523d6000602084013e61045b565b606091505b505090508061049f576040517f08c379a000000000000000000000000000000000000000000000000000000000815260040161049690611861565b60405180910390fd5b505b61080273ffffffffffffffffffffffffffffffffffffffff1663632535b98a8a8a60028b6104cf91906118b0565b8f8b8860006040518963ffffffff1660e01b81526004016104f79897969594939291906119dc565b6020604051808303816000875af1158015610516573d6000803e3d6000fd5b505050506040513d601f19601f8201168201806040525081019061053a9190611aa0565b50811561063d5760008081819054906101000a900460070b8092919061055f90611779565b91906101000a81548167ffffffffffffffff021916908360070b67ffffffffffffffff1602179055505060008a73ffffffffffffffffffffffffffffffffffffffff16650da475abf0006040516105b5906117da565b60006040518083038185875af1925050503d80600081146105f2576040519150601f19603f3d011682016040523d82523d6000602084013e6105f7565b606091505b505090508061063b576040517f08c379a000000000000000000000000000000000000000000000000000000000815260040161063290611861565b60405180910390fd5b505b50505050505050505050565b60008054906101000a900460070b81565b600061080273ffffffffffffffffffffffffffffffffffffffff1663632535b98a8a8a8a308b8b8b8b6040518a63ffffffff1660e01b81526004016106a799989796959493929190611adc565b6020604051808303816000875af11580156106c6573d6000803e3d6000fd5b505050506040513d601f19601f820116820180604052508101906106ea9190611aa0565b905098975050505050505050565b600061080273ffffffffffffffffffffffffffffffffffffffff1663632535b98a8a8a8a338b8b8b8b6040518a63ffffffff1660e01b815260040161074599989796959493929190611adc565b6020604051808303816000875af1158015610764573d6000803e3d6000fd5b505050506040513d601f19601f820116820180604052508101906107889190611aa0565b905098975050505050505050565b81156108985760008081819054906101000a900460070b809291906107ba90611779565b91906101000a81548167ffffffffffffffff021916908360070b67ffffffffffffffff1602179055505060008973ffffffffffffffffffffffffffffffffffffffff16650da475abf000604051610810906117da565b60006040518083038185875af1925050503d806000811461084d576040519150601f19603f3d011682016040523d82523d6000602084013e610852565b606091505b5050905080610896576040517f08c379a000000000000000000000000000000000000000000000000000000000815260040161088d90611861565b60405180910390fd5b505b60006040518060400160405280606467ffffffffffffffff168152602001606467ffffffffffffffff16815250905061080273ffffffffffffffffffffffffffffffffffffffff1663632535b9898989898e8a8860006040518963ffffffff1660e01b8152600401610911989796959493929190611b8d565b6020604051808303816000875af1158015610930573d6000803e3d6000fd5b505050506040513d601f19601f820116820180604052508101906109549190611aa0565b508115610a575760008081819054906101000a900460070b8092919061097990611779565b91906101000a81548167ffffffffffffffff021916908360070b67ffffffffffffffff1602179055505060008a73ffffffffffffffffffffffffffffffffffffffff16650da475abf0006040516109cf906117da565b60006040518083038185875af1925050503d8060008114610a0c576040519150601f19603f3d011682016040523d82523d6000602084013e610a11565b606091505b5050905080610a55576040517f08c379a0000000000000000000000000000000000000000000000000000000008152600401610a4c90611861565b60405180910390fd5b505b50505050505050505050565b606061080273ffffffffffffffffffffffffffffffffffffffff1663b5cb6e7d836040518263ffffffff1660e01b8152600401610aa0919061142d565b600060405180830381865afa158015610abd573d6000803e3d6000fd5b505050506040513d6000823e3d601f19601f82011682018060405250810190610ae69190611cac565b9050919050565b6060610af7610c11565b61080273ffffffffffffffffffffffffffffffffffffffff166322b6fad6846040518263ffffffff1660e01b8152600401610b329190611e71565b600060405180830381865afa158015610b4f573d6000803e3d6000fd5b505050506040513d6000823e3d601f19601f82011682018060405250810190610b78919061210e565b91509150915091565b610b89610c35565b61080273ffffffffffffffffffffffffffffffffffffffff1663a815cdd9836040518263ffffffff1660e01b8152600401610bc4919061142d565b600060405180830381865afa158015610be1573d6000803e3d6000fd5b505050506040513d6000823e3d601f19601f82011682018060405250810190610c0a9190612186565b9050919050565b604051806040016040528060608152602001600067ffffffffffffffff1681525090565b604051806040016040528060608152602001606081525090565b6000604051905090565b600080fd5b600080fd5b600073ffffffffffffffffffffffffffffffffffffffff82169050919050565b6000610c8e82610c63565b9050919050565b610c9e81610c83565b8114610ca957600080fd5b50565b600081359050610cbb81610c95565b92915050565b600080fd5b600080fd5b6000601f19601f8301169050919050565b7f4e487b7100000000000000000000000000000000000000000000000000000000600052604160045260246000fd5b610d1482610ccb565b810181811067ffffffffffffffff82111715610d3357610d32610cdc565b5b80604052505050565b6000610d46610c4f565b9050610d528282610d0b565b919050565b600067ffffffffffffffff821115610d7257610d71610cdc565b5b610d7b82610ccb565b9050602081019050919050565b82818337600083830152505050565b6000610daa610da584610d57565b610d3c565b905082815260208101848484011115610dc657610dc5610cc6565b5b610dd1848285610d88565b509392505050565b600082601f830112610dee57610ded610cc1565b5b8135610dfe848260208601610d97565b91505092915050565b6000819050919050565b610e1a81610e07565b8114610e2557600080fd5b50565b600081359050610e3781610e11565b92915050565b60008115159050919050565b610e5281610e3d565b8114610e5d57600080fd5b50565b600081359050610e6f81610e49565b92915050565b60008060008060008060008060006101208a8c031215610e9857610e97610c59565b5b6000610ea68c828d01610cac565b99505060208a013567ffffffffffffffff811115610ec757610ec6610c5e565b5b610ed38c828d01610dd9565b98505060408a013567ffffffffffffffff811115610ef457610ef3610c5e565b5b610f008c828d01610dd9565b97505060608a013567ffffffffffffffff811115610f2157610f20610c5e565b5b610f2d8c828d01610dd9565b9650506080610f3e8c828d01610e28565b95505060a08a013567ffffffffffffffff811115610f5f57610f5e610c5e565b5b610f6b8c828d01610dd9565b94505060c0610f7c8c828d01610e60565b93505060e0610f8d8c828d01610e60565b925050610100610f9f8c828d01610e60565b9150509295985092959850929598565b60008160070b9050919050565b610fc581610faf565b82525050565b6000602082019050610fe06000830184610fbc565b92915050565b600080fd5b600080fd5b600067ffffffffffffffff82169050919050565b61100d81610ff0565b811461101857600080fd5b50565b60008135905061102a81611004565b92915050565b60006040828403121561104657611045610fe6565b5b6110506040610d3c565b905060006110608482850161101b565b60008301525060206110748482850161101b565b60208301525092915050565b600080600080600080600080610120898b0312156110a1576110a0610c59565b5b600089013567ffffffffffffffff8111156110bf576110be610c5e565b5b6110cb8b828c01610dd9565b985050602089013567ffffffffffffffff8111156110ec576110eb610c5e565b5b6110f88b828c01610dd9565b975050604089013567ffffffffffffffff81111561111957611118610c5e565b5b6111258b828c01610dd9565b96505060606111368b828c01610e28565b955050608089013567ffffffffffffffff81111561115757611156610c5e565b5b6111638b828c01610dd9565b94505060a06111748b828c01611030565b93505060e06111858b828c0161101b565b92505061010089013567ffffffffffffffff8111156111a7576111a6610c5e565b5b6111b38b828c01610dd9565b9150509295985092959890939650565b6111cc81610ff0565b82525050565b60006020820190506111e760008301846111c3565b92915050565b60006111f882610c63565b9050919050565b611208816111ed565b811461121357600080fd5b50565b600081359050611225816111ff565b92915050565b60008060008060008060008060006101208a8c03121561124e5761124d610c59565b5b600061125c8c828d01610cac565b995050602061126d8c828d01611216565b98505060408a013567ffffffffffffffff81111561128e5761128d610c5e565b5b61129a8c828d01610dd9565b97505060608a013567ffffffffffffffff8111156112bb576112ba610c5e565b5b6112c78c828d01610dd9565b96505060808a013567ffffffffffffffff8111156112e8576112e7610c5e565b5b6112f48c828d01610dd9565b95505060a06113058c828d01610e28565b94505060c08a013567ffffffffffffffff81111561132657611325610c5e565b5b6113328c828d01610dd9565b93505060e06113438c828d01610e60565b9250506101006113558c828d01610e60565b9150509295985092959850929598565b60006020828403121561137b5761137a610c59565b5b600082013567ffffffffffffffff81111561139957611398610c5e565b5b6113a584828501610dd9565b91505092915050565b600081519050919050565b600082825260208201905092915050565b60005b838110156113e85780820151818401526020810190506113cd565b60008484015250505050565b60006113ff826113ae565b61140981856113b9565b93506114198185602086016113ca565b61142281610ccb565b840191505092915050565b6000602082019050818103600083015261144781846113f4565b905092915050565b600080fd5b600060a0828403121561146a5761146961144f565b5b81905092915050565b60006020828403121561148957611488610c59565b5b600082013567ffffffffffffffff8111156114a7576114a6610c5e565b5b6114b384828501611454565b91505092915050565b600081519050919050565b600082825260208201905092915050565b6000819050602082019050919050565b600082825260208201905092915050565b6000611504826113ae565b61150e81856114e8565b935061151e8185602086016113ca565b61152781610ccb565b840191505092915050565b6000604083016000830151848203600086015261154f82826114f9565b9150506020830151848203602086015261156982826114f9565b9150508091505092915050565b60006115828383611532565b905092915050565b6000602082019050919050565b60006115a2826114bc565b6115ac81856114c7565b9350836020820285016115be856114d8565b8060005b858110156115fa57848403895281516115db8582611576565b94506115e68361158a565b925060208a019950506001810190506115c2565b50829750879550505050505092915050565b600081519050919050565b600082825260208201905092915050565b60006116338261160c565b61163d8185611617565b935061164d8185602086016113ca565b61165681610ccb565b840191505092915050565b61166a81610ff0565b82525050565b6000604083016000830151848203600086015261168d8282611628565b91505060208301516116a26020860182611661565b508091505092915050565b600060408201905081810360008301526116c78185611597565b905081810360208301526116db8184611670565b90509392505050565b6000604083016000830151848203600086015261170182826114f9565b9150506020830151848203602086015261171b82826114f9565b9150508091505092915050565b6000602082019050818103600083015261174281846116e4565b905092915050565b7f4e487b7100000000000000000000000000000000000000000000000000000000600052601160045260246000fd5b600061178482610faf565b9150677fffffffffffffff820361179e5761179d61174a565b5b600182019050919050565b600081905092915050565b50565b60006117c46000836117a9565b91506117cf826117b4565b600082019050919050565b60006117e5826117b7565b9150819050919050565b7f4661696c656420746f2073656e6420457468657220746f2064656c656761746f60008201527f7200000000000000000000000000000000000000000000000000000000000000602082015250565b600061184b6021836113b9565b9150611856826117ef565b604082019050919050565b6000602082019050818103600083015261187a8161183e565b9050919050565b7f4e487b7100000000000000000000000000000000000000000000000000000000600052601260045260246000fd5b60006118bb82610e07565b91506118c683610e07565b9250826118d6576118d5611881565b5b828204905092915050565b6118ea81610e07565b82525050565b6000819050919050565b600061191561191061190b84610c63565b6118f0565b610c63565b9050919050565b6000611927826118fa565b9050919050565b60006119398261191c565b9050919050565b6119498161192e565b82525050565b6040820160008201516119656000850182611661565b5060208201516119786020850182611661565b50505050565b6000819050919050565b60006119a361199e6119998461197e565b6118f0565b610ff0565b9050919050565b6119b381611988565b82525050565b60006119c66000836113b9565b91506119d1826117b4565b600082019050919050565b60006101408201905081810360008301526119f7818b6113f4565b90508181036020830152611a0b818a6113f4565b90508181036040830152611a1f81896113f4565b9050611a2e60608301886118e1565b611a3b6080830187611940565b81810360a0830152611a4d81866113f4565b9050611a5c60c083018561194f565b611a6a6101008301846119aa565b818103610120830152611a7c816119b9565b90509998505050505050505050565b600081519050611a9a81611004565b92915050565b600060208284031215611ab657611ab5610c59565b5b6000611ac484828501611a8b565b91505092915050565b611ad6816111ed565b82525050565b6000610140820190508181036000830152611af7818c6113f4565b90508181036020830152611b0b818b6113f4565b90508181036040830152611b1f818a6113f4565b9050611b2e60608301896118e1565b611b3b6080830188611acd565b81810360a0830152611b4d81876113f4565b9050611b5c60c083018661194f565b611b6a6101008301856111c3565b818103610120830152611b7d81846113f4565b90509a9950505050505050505050565b6000610140820190508181036000830152611ba8818b6113f4565b90508181036020830152611bbc818a6113f4565b90508181036040830152611bd081896113f4565b9050611bdf60608301886118e1565b611bec6080830187611acd565b81810360a0830152611bfe81866113f4565b9050611c0d60c083018561194f565b611c1b6101008301846119aa565b818103610120830152611c2d816119b9565b90509998505050505050505050565b6000611c4f611c4a84610d57565b610d3c565b905082815260208101848484011115611c6b57611c6a610cc6565b5b611c768482856113ca565b509392505050565b600082601f830112611c9357611c92610cc1565b5b8151611ca3848260208601611c3c565b91505092915050565b600060208284031215611cc257611cc1610c59565b5b600082015167ffffffffffffffff811115611ce057611cdf610c5e565b5b611cec84828501611c7e565b91505092915050565b600080fd5b600080fd5b600080fd5b60008083356001602003843603038112611d2157611d20611cff565b5b83810192508235915060208301925067ffffffffffffffff821115611d4957611d48611cf5565b5b600182023603831315611d5f57611d5e611cfa565b5b509250929050565b6000611d738385611617565b9350611d80838584610d88565b611d8983610ccb565b840190509392505050565b6000611da3602084018461101b565b905092915050565b6000611dba6020840184610e60565b905092915050565b611dcb81610e3d565b82525050565b600060a08301611de46000840184611d04565b8583036000870152611df7838284611d67565b92505050611e086020840184611d94565b611e156020860182611661565b50611e236040840184611d94565b611e306040860182611661565b50611e3e6060840184611dab565b611e4b6060860182611dc2565b50611e596080840184611dab565b611e666080860182611dc2565b508091505092915050565b60006020820190508181036000830152611e8b8184611dd1565b905092915050565b600067ffffffffffffffff821115611eae57611ead610cdc565b5b602082029050602081019050919050565b600080fd5b600060408284031215611eda57611ed9610fe6565b5b611ee46040610d3c565b9050600082015167ffffffffffffffff811115611f0457611f03610feb565b5b611f1084828501611c7e565b600083015250602082015167ffffffffffffffff811115611f3457611f33610feb565b5b611f4084828501611c7e565b60208301525092915050565b6000611f5f611f5a84611e93565b610d3c565b90508083825260208201905060208402830185811115611f8257611f81611ebf565b5b835b81811015611fc957805167ffffffffffffffff811115611fa757611fa6610cc1565b5b808601611fb48982611ec4565b85526020850194505050602081019050611f84565b5050509392505050565b600082601f830112611fe857611fe7610cc1565b5b8151611ff8848260208601611f4c565b91505092915050565b600067ffffffffffffffff82111561201c5761201b610cdc565b5b61202582610ccb565b9050602081019050919050565b600061204561204084612001565b610d3c565b90508281526020810184848401111561206157612060610cc6565b5b61206c8482856113ca565b509392505050565b600082601f83011261208957612088610cc1565b5b8151612099848260208601612032565b91505092915050565b6000604082840312156120b8576120b7610fe6565b5b6120c26040610d3c565b9050600082015167ffffffffffffffff8111156120e2576120e1610feb565b5b6120ee84828501612074565b600083015250602061210284828501611a8b565b60208301525092915050565b6000806040838503121561212557612124610c59565b5b600083015167ffffffffffffffff81111561214357612142610c5e565b5b61214f85828601611fd3565b925050602083015167ffffffffffffffff8111156121705761216f610c5e565b5b61217c858286016120a2565b9150509250929050565b60006020828403121561219c5761219b610c59565b5b600082015167ffffffffffffffff8111156121ba576121b9610c5e565b5b6121c684828501611ec4565b9150509291505056fea2646970667358221220d98fe1841e6796cc2b8840dc0ca8dea16b77db86a412c5d2432e29aa0b8e858c64736f6c63430008140033",
  "linkReferences": {},
  "deployedLinkReferences": {}
}